S00C00006D61696E2E7372656373
S30D2000028800002064210701207B
S315200002907C48010001000000E04D01000100000043
S315200002A0DFF804D010F03CBA00002064EFF3098098
S315200002B0A0F1300181F309884FF00101EFF30582A7
S315200002C0EFF3118320E9FE4F044610F021FA204671
S315200002D0B0E8FE4F80F3098883F31188704700B594
S315200002E081B0EFF309814FF0030041F8040DDFF8E8
S315200002F018C0CCF80010EFF30580A0F10F0010F025
S31520000300DFF901B000BD000080E40120EFF3098C85
S31520000310ACF1200080F30988034B044A04492CE9F8
S315200003200F002CE90F00704700000001A1060120F4
S3152000033035030020074B00DFEFF3098C0CF1200C6E
S315200003408CF30988704708F03BBDEFF3098C9CE8D5
S315200003500F0018473903002080B500AF294B1B68D2
S31520000360002B4CD1284B1B881A46284913464FEAA6
S31520000370430313440B441B784FEA1313DBB24FEAB3
S31520000380032398B2204B1B881A46204913464FEA6E
S31520000390430313440B4403F102031B7803449BB22B
S315200003A0194A1380184B1B88002B1FD1164B1B880C
S315200003B01A46164913464FEA430313440B441B7847
S315200003C04FEA1313DBB24FEA032398B20E4B1B8876
S315200003D01A460E4913464FEA430313440B4403F1CE
S315200003E002031B7803449BB2074A1380054B1B6804
S315200003F0002B04D1044B1B88184600F04FFABD464B
S3152000040080BDC046AC980120AA980120A86801208A
S3152000041080B500AF294B1B68002B4CD1284B1B887D
S315200004201A46284913464FEA430313440B441B78C4
S315200004304FEA1313DBB24FEA032398B2204B1B88F3
S315200004401A46204913464FEA430313440B4403F14B
S3152000045002031B7803449BB2194A1380184B1B884E
S31520000460002B1FD1164B1B881A46164913464FEAF6
S31520000470430313440B441B784FEA1313DBB24FEAB2
S31520000480032398B20E4B1B881A460E4913464FEA91
S31520000490430313440B4403F102031B7803449BB22A
S315200004A0074A1380054B1B68002B04D1044B1B887D
S315200004B0184600F0F3F9BD4680BDC046AC98012031
S315200004C0AA980120A868012080B500AF294B1B6897
S315200004D0002B4CD1284B1B881A46284913464FEA35
S315200004E0430313440B441B784FEA1313DBB24FEA42
S315200004F0032398B2204B1B881A46204913464FEAFD
S31520000500430313440B4403F102031B7803449BB2B9
S31520000510194A1380184B1B88002B1FD1164B1B889A
S315200005201A46164913464FEA430313440B441B78D5
S315200005304FEA1313DBB24FEA032398B20E4B1B8804
S315200005401A460E4913464FEA430313440B4403F15C
S3152000055002031B7803449BB2074A1380054B1B6892
S31520000560002B04D1044B1B88184600F097F9BD4692
S3152000057080BDC046AC980120AA980120A868012019
S3152000058080B500AF294B1B68002B4CD1284B1B880C
S315200005901A46284913464FEA430313440B441B7853
S315200005A04FEA1313DBB24FEA032398B2204B1B8882
S315200005B01A46204913464FEA430313440B4403F1DA
S315200005C002031B7803449BB2194A1380184B1B88DD
S315200005D0002B1FD1164B1B881A46164913464FEA85
S315200005E0430313440B441B784FEA1313DBB24FEA41
S315200005F0032398B20E4B1B881A460E4913464FEA20
S31520000600430313440B4403F102031B7803449BB2B8
S31520000610074A1380054B1B68002B04D1044B1B880B
S31520000620184600F03BF9BD4680BDC046AC98012077
S31520000630AA980120A868012080B582B000AF07F1F2
S3152000064004034FF4B420194610F0BAF97B68012B45
S3152000065001D100F053F907F10807BD4680BDC04619
S3152000066080B582B000AF07F104034FF4B4201946D9
S3152000067010F0A6F97B68012B06D100F063F903463A
S31520000680002B01D000F03AF907F10807BD4680BDDE
S3152000069080B582B000AF07F104034FF4B4201946A9
S315200006A010F08EF97B68012B13D10C4B1B881A4650
S315200006B00B4B1B884FEA03534FEA13539A4208D138
S315200006C0074B1B884FEA13339BB20E2B01D100F048
S315200006D015F907F10807BD4680BDC046B4D00120F4
S315200006E02CDE012080B582B000AF07F104034FF461
S315200006F0B420194610F064F97B68012B12D10B4BFC
S315200007001B881A460A4B1B884FEA03534FEA13539A
S315200007109A4207D1074A4FF400731360054A4FF0F7
S315200007200003136007F10807BD4680BDB4D0012041
S315200007302CDE01201408024080B483B000AF104A9A
S3152000074049F2101313800F4A49F2101313600E4A10
S315200007504FF4807313600C4A4FF0000313600A4A6B
S315200007604FF040031360084A4FF410731360064A93
S315200007704FF00003136007F10C07BD4680BC70479D
S3152000078080CF0120140002401408024080B487B0B4
S3152000079000AFF860B9604FF450433B824FF000033E
S315200007A07B824FF000037B614FF000037B610BE0FF
S315200007B07B8A03F101037B827B8A4FEA43037B8298
S315200007C07B6903F101037B617A69FB689A42EFDB5F
S315200007D07A8AFB68C3F10C0302FA03F37B823A8A16
S315200007E07B8A13443B82BB689AB23B8A13443B8282
S315200007F00F4A3B8A13800F4A3B8A13600E4A4FF4F6
S31520000800807313600C4A4FF0000313600A4A4FF0BE
S3152000081040031360084A4FF410731360064A4FF0E2
S315200008200003136007F11C07BD4680BC7047C04615
S3152000083080CF0120140002401408024080B483B007
S3152000084000AF78607B689BB2A3F500539BB2104A39
S315200008501380104A7B6803F5604313600E4A4FF4F9
S31520000860807313600C4A4FF0000313600A4A4FF05E
S3152000087040031360084A4FF410731360064A4FF082
S315200008800003136007F10C07BD4680BC7047C046C5
S3152000089080CF0120140002401408024080B483B0A7
S315200008A000AF0346FB80FB88A3F580439BB2104A2A
S315200008B01380104AFB8803F5404313600E4A4FF419
S315200008C0807313600C4A4FF0000313600A4A4FF0FE
S315200008D040031360084A4FF410731360064A4FF022
S315200008E00003136007F10C07BD4680BC7047C04665
S315200008F080CF0120140002401408024080B483B047
S3152000090000AF0D4A0D4B1B8803F5404313600C4A7C
S315200009104FF4807313600A4A4FF000031360084AAD
S315200009204FF400731360064A4FF00003136007F17B
S315200009300C07BD4680BC704714000240B4D001208D
S315200009401408024080B487B000AF314B1B884FEAB1
S3152000095003534FEA1353FB814FF000033B614FF0E3
S3152000096000033B610DE03A692A4B33F81220FB89DC
S3152000097002EA03039BB2002B06D03B6903F1010375
S315200009803B613B690B2BEEDD3B699BB203F1010317
S315200009909BB2214A1380FA891F4B1B8803F104035B
S315200009A002FA03F39BB21D4A13801C4B1B881A467E
S315200009B0194B1B8803F1040342FA03F39BB2174A2F
S315200009C01380174B1B881A46134B1B8803F104030D
S315200009D002FA03F37B61104B1B8803F104027B6947
S315200009E043FA02F37B610D4B1B881A467B699A42B8
S315200009F003D14FF001037B6002E04FF000037B60E0
S31520000A007B68184607F11C07BD4680BC7047C04668
S31520000A102CDE01207864012070CF01207ACF0120BE
S31520000A20B4D0012080B483B000AF4FF000037B60C8
S31520000A300FE079680B4A4FF0000322F811307968ED
S31520000A40094A4FF0000322F811307B6803F10103B5
S31520000A507B607B68402BECDD07F10C07BD4680BC34
S31520000A607047C0468CCF012012D0012080B586B0B9
S31520000A7000AF786044484FF001010FF08FFF434AE2
S31520000A80537843F001035370404B1B88404A138030
S31520000A90404A4FF0000313603F4A4FF000031370A3
S31520000AA03E4A4FF0000313703D4A3E4B13603C4BC9
S31520000AB01B681B8A3C4A13803B4B1B88002B4FD15B
S31520000AC0374B1B685A8B364B1B689B8B9A4204D03C
S31520000AD0334B1B689B6A3B6002E04FF000033B6090
S31520000AE03B68BB602E4B1B689B8B1A462C4B1B68A6
S31520000AF05B8BC3EB02024FEAD27313444FEA6303C4
S31520000B00BB81264B1B781A46BB89934204D8234BBC
S31520000B104FF000021A7018E0204B1B784FEA43036F
S31520000B201A46BB6813443B613B697B617B691B8822
S31520000B30FB811A4B1B7803F10103DBB2174A1370B2
S31520000B401A4B1A88FB899342DBD1144B1B78002B56
S31520000B5006D0124B1B7803F1FF33DBB20F4A13701A
S31520000B607B68012B0BD1124A094B1B881360114A53
S31520000B704FF4005313600F4A4FF00003136007F140
S31520000B801807BD4680BDC04602C40100A2D0012080
S31520000B9098D00120B4980120B898012094D0012043
S31520000BA084CF01201CD201208ACF01200ED0012023
S31520000BB0140002401408024080B586B000AF0346F8
S31520000BC0FB730B46BB811346FB72194B1B78002B1C
S31520000BD029D0174B1B787B607B68022B23D07B6840
S31520000BE0032B1CD07B68012B1DD14FF00103FB7515
S31520000BF0FB7BBA8997F80BC018461146624600F06F
S31520000C0023FA0346FB75FB7D012B0CD1084B4FF0D5
S31520000C1003021A704FF0580000F00CF803E0FB7A3C
S31520000C20184600F007F807F11807BD4680BDC046F4
S31520000C30B898012080B582B000AF0346FB71FB79DE
S31520000C40582B02D1FFF788FB10E0FB79562B02D1F7
S31520000C50FFF7DEFB0AE0FB795B2B02D1FFF734FCC2
S31520000C6004E0FB795C2B01D1FFF78AFC07F108072A
S31520000C70BD4680BD80B58AB000AF0346FB770B46E4
S31520000C80BB831346FB76FB7E582B53D1E14B1B8847
S31520000C9003F10101E04B83FB01234FEA63124FEA84
S31520000CA0E173C3EB02037B607B684FEA83137A68A8
S31520000CB01344C3EB01037B607A6893B2D74A13804F
S31520000CC024E0D64B1B881A46D54B33F812304FEA10
S31520000CD093339BB203F00103DBB2002B1CD1CF4B25
S31520000CE01B8803F101039BB2CC4A1380CB4B198896
S31520000CF0CC4BA3FB01234FEA931213464FEA8313EF
S31520000D001344C3EB01039BB2C44A1380C34B1A8816
S31520000D10C04B1B889A42D4D1C34A4FF000031370AC
S31520000D20BE4B1A88BB4B1B889A4203D14FF0020355
S31520000D30BB6068E1FB7E5B2B5BD1BB4B1B78012B39
S31520000D4003D0B94B1B78022B53D1B44B1B8803F12C
S31520000D500101B14B83FB01234FEA63124FEAE17392
S31520000D60C3EB0203FB60FB684FEA8313FA68134464
S31520000D70C3EB0103FB60FA6893B2A84A138024E010
S31520000D80A64B1B881A46A64B33F812304FEA9333EC
S31520000D909BB203F00103DBB2002B1CD19F4B1B88B7
S31520000DA003F101039BB29D4A13809C4B19889D4BEE
S31520000DB0A3FB01234FEA931213464FEA83131344EE
S31520000DC0C3EB01039BB2954A1380944B1A88914B2F
S31520000DD01B889A42D4D1914B1A888E4B1B889A42F3
S31520000DE003D14FF00203BB600DE18F4B4FF00002A1
S31520000DF01A70FB7E562B40F0D7808B4B1B78012B2D
S31520000E0040F0A58007F11C031B88FB84FB7F0F2B7A
S31520000E1048D197F827304FEA931303F00103DBB24A
S31520000E20012B3FD197F827304FEA530303F00103F4
S31520000E30DBB2012B36D17C4A4FF002031370774B7D
S31520000E401B889BB23B613A694FEA02534FEA135320
S31520000E503B613A6913466FEA43436FEA53439BB2B9
S31520000E609BB2724A1380724A6C4B1B884FEA03531B
S31520000E704FEA135343F4004313606E4A4FF48073D2
S31520000E8013606C4A4FF0000313606A4A4FF0400328
S31520000E901360684A4FF410731360664A4FF00003DC
S31520000EA0136081E05D4B1B8803F101015A4B83FBE4
S31520000EB001234FEA63124FEAE173C3EB02037B611E
S31520000EC07B694FEA83137A691344C3EB01037B6181
S31520000ED07A6993B2514A138024E0504B1B881A46F4
S31520000EE04F4B33F812304FEA93339BB203F0010392
S31520000EF0DBB2002B1CD1494B1B8803F101039BB2AB
S31520000F00464A1380454B1988464BA3FB01234FEADB
S31520000F10931213464FEA83131344C3EB01039BB288
S31520000F203E4A13803D4B1A883A4B1B889A42D4D1AD
S31520000F303A4B1A88374B1B889A4203D14FF002034B
S31520000F40BB6060E0384B4FF000021A702CE0364B45
S31520000F501B78022B28D1FB7F082B21D1364A4FF054
S31520000F6000031370354A537823F001035370334B33
S31520000F701B88334A138033484FF000010FF00EFDD3
S31520000F802B4A2F4B1B8813602A4A4FF400531360B9
S31520000F90284A4FF0000313604FF00002BA6032E097
S31520000FA04FF00203BB602EE01F4B1B78002B27D18E
S31520000FB01D4A4FF001031370184B1B886FEA035329
S31520000FC06FEA13539BB29BB2184A1380184A134BED
S31520000FD01B8843F470431360164A4FF480731360E2
S31520000FE0144A4FF000031360124A4FF04003136077
S31520000FF0104A4FF4107313600E4A4FF0000313602B
S315200010004FF00502BA60BB68184607F12807BD46AF
S3152000101080BDC046B4D001207FE0077E7CCF012072
S315200010208CCF0120FDC00FFC10D0012080CF0120E5
S315200010301400024014080240B8980120A2D00120D2
S3152000104098D0012002C4010080B58CB000AF0346C1
S31520001050FB770B46BB831346FB76804B1B78002B16
S3152000106003D14FF001027A60F2E0FB7E582B03D1C8
S315200010707B4B4FF000021A70FB7E5B2B17D1794B0E
S315200010801B88BB60BA684FEA02534FEA1353BB6012
S31520001090B8684FF000014FF0010200F0F3F8704BF2
S315200010A01B7803F10103DBB26D4A137019E0FB7E56
S315200010B0562B16D16B4B1B88FB60FA684FEA0253FE
S315200010C04FEA1353FB60BB8BF86819464FF00002BA
S315200010D000F0D8F8624B1B7803F10103DBB2604ABB
S315200010E013705F4B1A785D4B1B789A4203D34FF0EF
S315200010F001037B60ACE05C4B1B883B613A69002AAC
S3152000110003D03B69012B67D09FE0584B1B685A8B55
S31520001110564B1B689B8B9A4204D0544B1B689B6A88
S315200011207B6102E04FF000027A617B693B624F4BA4
S315200011301B689B8B1A464D4B1B685B8BC3EB0202CD
S315200011404FEAD27313444FEA63039BB2BB62484B08
S315200011501B781A46BB6A9A4203D3454B4FF00002CE
S315200011601A70434B1B784FEA43031A463B6A1344D3
S315200011707B627B6AFB62FB6A1B689BB23D4A1380DB
S315200011803C4B1B886FEA03536FEA13539BB29BB207
S31520001190394A1380394A374B1B8843F4704313600E
S315200011A0374A4FF480731360354A4FF000031360BB
S315200011B0334A4FF040031360314A4FF410731360E3
S315200011C02F4A4FF000031360294B1B7803F10103CC
S315200011D0DBB2274A137038E0264B1A8840F6FF7395
S315200011E09A4203D8234B1B88002B03D1214B4FF067
S315200011F001021A801F4B1B886FEA03536FEA1353B1
S315200012009BB29BB21C4A13801C4A1A4B1B8843F480
S31520001210704313601A4A4FF480731360184A4FF0D4
S3152000122000031360164A4FF040031360144A4FF42C
S3152000123010731360124A4FF0000313600D4B1B8886
S3152000124003F101039BB20B4A13804FF000027A6030
S315200012507B68184607F13007BD4680BD7ECF01204A
S3152000126088CF01202CDE01208ACF012084CF0120C7
S3152000127094D001200ED0012080CF012014000240FE
S315200012801408024080B483B000AF03463A60FB8066
S315200012900B46BB803B68002B40F07F82BB8803F463
S315200012A08053002B00F00081DFF8C8371B78012B14
S315200012B037D9FA88DFF8C01713464FEA4303134499
S315200012C00B441B7803F00F03DBB24FEA0320FA88A6
S315200012D0DFF8A41713464FEA430313440B4403F1E4
S315200012E001031B780344002B1BD1FA88DFF88817EB
S315200012F013464FEA430313440B441B784FEA131358
S31520001300DBB24FEA0320FA88DFF86C1713464FEA60
S31520001310430313440B4403F102031B780344002BBD
S315200013200FD0DFF854371B784FEA1313DBB24FEA9E
S315200013300322DFF844379B781A44FB889A4200F050
S315200013409183F888DFF830371B784FEA1313DBB226
S315200013504FEA0322DFF820379B7813444FEA2323F2
S31520001360DBB203F00F03D9B2DFF80C2703464FEAAE
S315200013704303034402EB03004FEA0111037803F011
S315200013800F031A460B4642EA03030370FA88DFF876
S31520001390E8369878DFF8E01613464FEA43031344FD
S315200013A00B4403F1020203461370DFF8CC361B7898
S315200013B04FEA1313DBB24FEA0322DFF8BC369B78E1
S315200013C002EB0301FB884FEA13239BB2DBB203F047
S315200013D00F03D8B2DFF8A0260B464FEA43030B448F
S315200013E002EB030C00F00F019CF8003023F00F03F2
S315200013F01A460B4642EA03038CF80030DFF87836AB
S315200014001B784FEA1313DBB24FEA0322DFF8683664
S315200014109B781A44FB88D8B2DFF85C1613464FEA4D
S31520001420430313440B4403F1010203461370FA8865
S31520001430DFF8441613464FEA4303134401EB030235
S31520001440137823F00F031370FA88DFF82C1613464F
S315200014504FEA430313440B4403F101024FF0000308
S315200014601370FB884FEA13239BB2DBB203F00F0302
S31520001470DBB2DFF804064FEA0311037803F00F030B
S315200014801A460B4642EA03030370FB88DBB2DFF8F9
S31520001490E8259370DFF8DC351B7803F10103DBB216
S315200014A0DFF8D0251370DDE2DFF8C8351B78012B75
S315200014B037D9FA88DFF8C01513464FEA4303134499
S315200014C00B441B7803F00F03DBB24FEA0320FA88A4
S315200014D0DFF8A41513464FEA430313440B4403F1E4
S315200014E001031B780344002B2BD1FA88DFF88815DB
S315200014F013464FEA430313440B441B784FEA131356
S31520001500DBB24FEA0320FA88DFF86C1513464FEA60
S31520001510430313440B4403F102031B780344002BBB
S315200015200FD1DFF854351B784FEA1313DBB24FEA9D
S315200015300322DFF844359B781A44FB889A4240F010
S315200015409182FA88DFF8301513464FEA4303134495
S315200015500B441B7803F00F03DBB24FEA0320FA8813
S31520001560DFF8141513464FEA430313440B4403F1E3
S3152000157001031B7800EB030CFA88DFF8FC141346F2
S315200015804FEA430313440B441B784FEA1313DBB291
S315200015904FEA0320FA88DFF8E01413464FEA4303A4
S315200015A013440B4403F102031B7803444FEA23231D
S315200015B0DBB203F00F03D9B2DFF8BC2463464FEA4F
S315200015C04303634402EB03004FEA0111037803F05F
S315200015D00F031A460B4642EA03030370FA88DFF824
S315200015E0981413464FEA430313440B441B7803F025
S315200015F00F03DBB24FEA0320FA88DFF87C14134688
S315200016004FEA430313440B4403F101031B781844A8
S31520001610FA88DFF8641413464FEA430313440B4455
S3152000162003F102031978DFF8502403464FEA4303F7
S315200016300344134403F102020B461370FA88DFF8C1
S31520001640381413464FEA430313440B441B784FEADE
S315200016501313DBB24FEA0320FA88DFF81C14134673
S315200016604FEA430313440B4403F102031B7800EBB8
S31520001670030CFA88DFF8001413464FEA4303134499
S315200016800B441B7803F00F03DBB24FEA0320FA88E2
S31520001690F94913464FEA430313440B4403F101036C
S315200016A01B7803444FEA2323DBB203F00F03D9B29E
S315200016B0F14A63464FEA4303634402EB030001F019
S315200016C00F01037823F00F031A460B4642EA030361
S315200016D00370FA88E84913464FEA430313440B4440
S315200016E01B784FEA1313DBB24FEA0320FA88E2494C
S315200016F013464FEA430313440B4403F102031B78BA
S315200017001844FA88DC4913464FEA430313440B4432
S3152000171003F101031978D84A03464FEA43030344E9
S31520001720134403F101020B461370FA88D24913467B
S315200017304FEA4303134401EB0302137803F00F032C
S315200017401370FA88CC4913464FEA430313440B44DB
S3152000175003F102024FF000031370FA88C6491346BC
S315200017604FEA4303134401EB0302137823F00F03DC
S315200017701370FA88C04913464FEA430313440B44B7
S3152000178003F101024FF000031370BA4B1B7803F1EB
S31520001790FF33DBB2B74A137064E1B64B1B78012BDB
S315200017A033D9FA88B44913464FEA430313440B440A
S315200017B01B7803F00F03DBB24FEA0320FA88AE4909
S315200017C013464FEA430313440B4403F101031B78EA
S315200017D00344002B27D1FA88A74913464FEA43032F
S315200017E013440B441B784FEA1313DBB24FEA032052
S315200017F0FA88A14913464FEA430313440B4403F1E5
S3152000180002031B780344002B0DD19B4B1B784FEA18
S315200018101313DBB24FEA0322974B9B781A44FB88BB
S315200018209A4240F01F81FA88934913464FEA4303B0
S3152000183013440B441B7803F00F03DBB24FEA03205B
S31520001840FA888D4913464FEA430313440B4403F1A8
S3152000185001031B7800EB030CFA88874913464FEAED
S31520001860430313440B441B784FEA1313DBB24FEAAE
S315200018700320FA88804913464FEA430313440B4456
S3152000188003F102031B7803444FEA2323DBB203F060
S315200018900F03D9B2784A63464FEA4303634402EB07
S315200018A003004FEA0111037803F00F031A460B4693
S315200018B042EA03030370FA886F4913464FEA43034B
S315200018C013440B441B7803F00F03DBB24FEA0320CB
S315200018D0FA88694913464FEA430313440B4403F13C
S315200018E001031B781844FA88634913464FEA4303D9
S315200018F013440B4403F1020319785F4A03464FEA67
S3152000190043030344134403F102020B461370FA887F
S31520001910594913464FEA430313440B441B784FEAB5
S315200019201313DBB24FEA0320FA88534913464FEAD2
S31520001930430313440B4403F102031B7800EB030C0F
S31520001940FA884D4913464FEA430313440B441B7848
S3152000195003F00F03DBB24FEA0320FA884649134609
S315200019604FEA430313440B4403F101031B7803445A
S315200019704FEA2323DBB203F00F03D9B23E4A634674
S315200019804FEA4303634402EB030001F00F0103789F
S3152000199023F00F031A460B4642EA03030370FA8824
S315200019A0354913464FEA430313440B441B784FEA49
S315200019B01313DBB24FEA0320FA882F4913464FEA66
S315200019C0430313440B4403F102031B781844FA889B
S315200019D0294913464FEA430313440B4403F10103F9
S315200019E01978254A03464FEA43030344134403F177
S315200019F001020B461370FA881F4913464FEA430328
S31520001A00134401EB0302137803F00F031370FA88D3
S31520001A10194913464FEA430313440B4403F10202C8
S31520001A204FF000031370FA88134913464FEA430315
S31520001A30134401EB0302137823F00F031370FA8883
S31520001A400D4913464FEA430313440B4403F10102A5
S31520001A504FF000031370074B1B7803F1FF33DBB203
S31520001A60044A13704FF00003184607F10C07BD46D1
S31520001A7080BC7047A8980120A868012080B500AFD7
S31520001A80194B1B6803F10102174B1A60164B1B6892
S31520001A90B3F5804F0CD1154A4FF002031370134A49
S31520001AA04FF001031370104A4FF00003136010E04B
S31520001AB00F4A4FF0010313700D4B1B78002B04D0F7
S31520001AC00A4B4FF001021A7003E0084B4FF0030255
S31520001AD01A704FF000004FF000014FF05802FFF748
S31520001AE06BF8BD4680BDC046B4980120B898012049
S31520001AF07ECF012080B58AB000AF594809F0D8FCC6
S31520001B0058480EF0E9FE4FF4A8300EF0E5FE564890
S31520001B100EF0E2FE4FF4C8300EF0DEFE53480EF013
S31520001B20DBFE07F110034FF4A83019460EF048FFEC
S31520001B304D484FF000010EF031FF4D4A42F210732E
S31520001B40138006E04A4B1B8803F1FF339BB2484AB9
S31520001B501380474B1B88002BF4D143484FF00101DB
S31520001B600EF01CFF424B42F210721A8006E0404BE8
S31520001B701B8803F1FF339BB23D4A13803C4B1B88E5
S31520001B80002BF4D107F110034FF4A83019460EF0BC
S31520001B9017FF3B69002B03D14FF000037B6059E010
S31520001BA034483549354A03F0ABFE0346BB61344819
S31520001BB034490DF0A3F80346FB61FB69002B28D1BD
S31520001BC04FF000037B6045E04FF000033B624FF08F
S31520001BD001037B621AE0FB7B1A467B6A02EA030357
S31520001BE0224819460EF0DAFE1E484FF000010EF08C
S31520001BF0D5FE1C484FF001010EF0D0FE7B6A4FEA5D
S31520001C0043037B623B6A03F101033B623B6A072B7A
S31520001C10E1DD07F10F0318464FF001014FF00102F5
S31520001C20FB690AF0ADFA0346002BCDD1F8690DF019
S31520001C30A7F807F110034FF4C83019460EF0C0FE7E
S31520001C403B69002B03D14FF000037B6002E04FF08D
S31520001C5001037B607B68184607F12807BD4680BDD7
S31520001C60A0560120028401000264010002740100D2
S31520001C7078CF01209C5601209056012094560120B1
S31520001C80B8560120C456012090B5A5B000AFDFF8A4
S31520001C90D40A09F00DFCDFF8D02A4FF00003138098
S31520001CA0DFF8C82A4FF000031380DFF8C42A4FF06C
S31520001CB000031380DFF8BC2A4FF000031380DFF8FF
S31520001CC0B82A4FF0000313804FF000033B664FF015
S31520001CD000037B66DFF8A43A07F13E024FF0160CAC
S31520001CE010461946624605F0E1FCDFF8940ADFF853
S31520001CF0941ADFF8942A03F003FE0346C7F88830C7
S31520001D00DFF8883AC7F88C30D7F88C00DFF8801ACD
S31520001D100CF0F4FF03467B657B6D002B04D14FF05E
S31520001D200001796001F012BF07F1160318464FF043
S31520001D3002014FF001027B6D0AF022FAFB8A4FEA7C
S31520001D4013239BB21A46FB8A4FEA03239BB242EA2D
S31520001D5003039BB29BB2FB824FF00103C7F884308A
S31520001D604FF00003A7F87E3016E007F1150318465A
S31520001D704FF001014FF001027B6D0AF001FAD7F80E
S31520001D80843003F10103C7F884307B7D1A46B7F807
S31520001D907E301344A7F87E30786D09F0A1F903460A
S31520001DA0002BE2D0FA8AB7F87E30934212D0DFF8C1
S31520001DB0E40909F07DFBFB8AB7F87E20DFF8D80915
S31520001DC01946D7F884300BF0BFFB4FF000027A603B
S31520001DD001F0BCBE786D09F067FA786D4FF002010C
S31520001DE04FF0000209F0B4F907F1180318464FF036
S31520001DF004014FF001027B6D0AF0C2F9BB694FEA7C
S31520001E001362BB6903F47F034FEA132342EA0302FA
S31520001E10BB6903F47F434FEA032342EA0302BB690B
S31520001E204FEA036342EA0303BB61BA69D7F88430F9
S31520001E309A4207D14FF000033B66D7F88430C7F8A3
S31520001E40803045E0786D4FF004014FF0000209F034
S31520001E507FF907F1180318464FF004014FF00102ED
S31520001E607B6D0AF08DF9BB694FEA1362BB6903F4F7
S31520001E707F034FEA132342EA0302BB6903F47F433D
S31520001E804FEA032342EA0302BB694FEA036342EAAD
S31520001E900303BB61BA69D7F884309A4207D14FF061
S31520001EA001033B66D7F88430C7F8803010E0DFF8AE
S31520001EB0EC0809F0FDFABB69DFF8E408D7F88410CE
S31520001EC01A460BF041FB4FF000037B6001F03EBE4B
S31520001ED0786D09F0E9F93B6E002B62D1DFF8C40872
S31520001EE04FF002014FF001027B6D0AF049F9DFF84D
S31520001EF0B4381B884FEA13239BB21A46DFF8A4385E
S31520001F001B884FEA03239BB242EA03039BB29BB290
S31520001F10DFF890281380DFF890084FF004014FF087
S31520001F2001027B6D0AF02CF9DFF878389B684FEABE
S31520001F301362DFF870389B6803F47F034FEA13239C
S31520001F4042EA0302DFF85C389B6803F47F434FEADA
S31520001F50032342EA0302DFF84C389B684FEA036307
S31520001F6042EA0302DFF83C389A60DFF840084FF077
S31520001F7001014FF010027B6D0AF002F9DFF83008FC
S31520001F804FF001014FF010027B6D0AF0F9F8DFF8EF
S31520001F9024084FF001014FF010027B6D0AF0F0F893
S31520001FA0DAE03B6E012B40F0D780DFF8F8074FF0E0
S31520001FB002014FF001027B6D0AF0E2F8DFF8E43708
S31520001FC01B884FEA13239BB21A46DFF8D8371B88A3
S31520001FD04FEA03239BB242EA03039BB29BB2DFF88C
S31520001FE0C4271380DFF8D0074FF002014FF001021B
S31520001FF07B6D0AF0C5F8DFF8AC375B689BB24FEA19
S3152000200013239BB21A46DFF89C375B689BB24FEAD4
S3152000201003234FEA03434FEA134342EA03031A46D4
S31520002020DFF880375A60DFF880074FF004014FF061
S3152000203001027B6D0AF0A4F8DFF868379B684FEA47
S315200020401362DFF860379B6803F47F034FEA13239C
S3152000205042EA0302DFF84C379B6803F47F434FEADA
S31520002060032342EA0302DFF83C379B684FEA036307
S3152000207042EA0302DFF82C379A60DFF840074FF078
S3152000208004014FF001027B6D0AF07AF8DFF814376D
S31520002090DB684FEA1362DFF80C37DB6803F47F0353
S315200020A04FEA132342EA0302DFF8F836DB6803F42B
S315200020B07F434FEA032342EA0302DFF8E836DB6870
S315200020C04FEA036342EA0302DFF8D836DA60DFF824
S315200020D0F0064FF004014FF001027B6D0AF050F834
S315200020E0DFF8C0361B694FEA1362DFF8B8361B6982
S315200020F003F47F034FEA132342EA0302DFF8A436F0
S315200021001B6903F47F434FEA032342EA0302DFF805
S3152000211094361B694FEA036342EA0302DFF88436EA
S315200021201A61DFF888064FF001014FF010027B6D2F
S315200021300AF026F8DFF878064FF001014FF010027A
S315200021407B6D0AF01DF8DFF86C064FF001014FF0A9
S3152000215010027B6D0AF014F8DFF868064FF00201D2
S315200021604FF001027B6D0AF00BF8DFF83836B3F832
S3152000217044304FEA13239BB21A46DFF82836B3F8C9
S3152000218044304FEA03239BB242EA03039BB29BB23D
S31520002190DFF81026A2F844304FF00003A7F85A3093
S315200021A04EE0B7F85A304FEA8302DFF81C36134464
S315200021B018464FF004014FF001027B6D09F0E0FF55
S315200021C0B7F85A00B7F85A30DFF8D82503F11203CA
S315200021D052F823304FEA1361B7F85A30DFF8C42596
S315200021E003F1120352F8233003F47F034FEA13233B
S315200021F041EA0301B7F85A30DFF8A82503F11203A4
S3152000220052F8233003F47F434FEA032341EA0301C4
S31520002210B7F85A30DFF88C2503F1120352F8233031
S315200022204FEA036341EA0301DFF8782500F1120340
S3152000223042F82310B7F85A3003F10103A7F85A30B1
S31520002240DFF86035B3F84420B7F85A309342A8D364
S315200022504FF00003A7F85A3001F047B8B7F85A30C4
S31520002260DFF8402503F1120352F82330786D194622
S315200022704FF0000208F06CFF07F11E0318464FF0DE
S3152000228001014FF002027B6D09F07AFFBB7F022B22
S315200022905CD1FB7F0B2B59D1DFF8CC244FF0010307
S315200022A01380DFF828054FF001014FF001027B6D06
S315200022B009F066FFDFF818054FF001014FF0010223
S315200022C07B6D09F05DFFDFF80C054FF002014FF042
S315200022D001027B6D09F054FFDFF8F0345B884FEA8A
S315200022E013239BB21A46DFF8E4345B884FEA0323B4
S315200022F09BB242EA03039BB29BB2DFF8D024538001
S31520002300DFF8D4044FF001014FF001027B6D09F094
S3152000231037FFDFF8C8044FF001014FF001027B6D53
S3152000232009F02EFFDFF8B8044FF001014FF001024B
S315200023307B6D09F025FFDFF8AC044FF001014FF06B
S3152000234001027B6D09F01CFF00F0C9BFBB7F022B89
S3152000235040F04486FB7F0D2B40F04086DFF80C24AE
S315200023604FF001031380DFF880044FF001014FF096
S3152000237001027B6D09F004FFDFF870044FF00101C4
S315200023804FF001027B6D09F0FBFEDFF864044FF08D
S3152000239002014FF001027B6D09F0F2FEDFF84834AE
S315200023A05B884FEA13239BB21A46DFF83C345B88DE
S315200023B04FEA03239BB242EA03039BB29BB2DFF8A8
S315200023C028245380DFF82C044FF002014FF001023D
S315200023D07B6D09F0D5FEDFF810349B884FEA132376
S315200023E09BB21A46DFF800349B884FEA03239BB240
S315200023F042EA03039BB29BB2FB4A9380FE484FF00E
S3152000240002014FF001027B6D09F0BAFEF64BDB8824
S315200024104FEA13239BB21A46F34BDB884FEA03237A
S315200024209BB242EA03039BB29BB2EF4AD380F348A6
S315200024304FF002014FF001027B6D09F0A1FEEA4B3D
S315200024401B894FEA13239BB21A46E74B1B894FEA97
S3152000245003239BB242EA03039BB29BB2E24A138157
S31520002460E7484FF002014FF001027B6D09F088FE2C
S31520002470DD4B5B894FEA13239BB21A46DA4B5B8905
S315200024804FEA03239BB242EA03039BB29BB2D64A8E
S315200024905381DC484FF002014FF001027B6D09F0B9
S315200024A06FFED14B9B894FEA13239BB21A46CE4B24
S315200024B09B894FEA03239BB242EA03039BB29BB25A
S315200024C0C94A9381D0484FF002014FF001027B6D3B
S315200024D009F056FEC44BDB894FEA13239BB21A46FA
S315200024E0C14BDB894FEA03239BB242EA03039BB22B
S315200024F09BB2BD4AD381C5484FF002014FF001027D
S315200025007B6D09F03DFEB84B1B8A4FEA13239BB225
S315200025101A46B54B1B8A4FEA03239BB242EA0303B2
S315200025209BB29BB2B04A1382B9484FF002014FF0DA
S3152000253001027B6D09F024FEAB4B5B8A4FEA132325
S315200025409BB21A46A84B5B8A4FEA03239BB242EA08
S3152000255003039BB29BB2A44A5382AE484FF00201BA
S315200025604FF001027B6D09F00BFE9F4B9B8A4FEAD1
S3152000257013239BB21A469C4B9B8A4FEA03239BB29A
S3152000258042EA03039BB29BB2974A9382A2484FF03A
S3152000259002014FF001027B6D09F0F2FD924BDB8ABE
S315200025A04FEA13239BB21A468F4BDB8A4FEA03234B
S315200025B09BB242EA03039BB29BB28B4AD3829748D3
S315200025C04FF002014FF001027B6D09F0D9FD864BD9
S315200025D01B8B4FEA13239BB21A46834B1B8B4FEA66
S315200025E003239BB242EA03039BB29BB27E4A138328
S315200025F08B484FF002014FF001027B6D09F0C0FDC0
S31520002600794B5B8B4FEA13239BB21A46764B5B8B37
S315200026104FEA03239BB242EA03039BB29BB2724A60
S31520002620538380484FF002014FF001027B6D09F081
S31520002630A7FD6D4B9B8B4FEA13239BB21A466A4B21
S315200026409B8B4FEA03239BB242EA03039BB29BB2C6
S31520002650654A938374484FF002014FF001027B6D67
S3152000266009F08EFD604BDB8B4FEA13239BB21A4693
S315200026705D4BDB8B4FEA03239BB242EA03039BB2FB
S315200026809BB2594AD38369484FF002014FF00102A9
S315200026907B6D09F075FD544B1B8C4FEA13239BB2BF
S315200026A01A46514B1B8C4FEA03239BB242EA030383
S315200026B09BB29BB24C4A13845D484FF002014FF007
S315200026C001027B6D09F05CFD474B5B8C4FEA1323BF
S315200026D09BB21A46444B5B8C4FEA03239BB242EAD9
S315200026E003039BB29BB2404A538452484FF00201E7
S315200026F04FF001027B6D09F043FD3B4B9B8C4FEA6B
S3152000270013239BB21A46384B9B8C4FEA03239BB26A
S3152000271042EA03039BB29BB2334A9384324B9A8B91
S31520002720314B5B8BC3EB0203A7F86A30B7F86A30EC
S31520002730184608F027FB03461A462B4B9A622A4B6B
S315200027409A6AB7F86A304FEA53039BB210464FF0A5
S3152000275002011A467B6D09F013FD4FF00003A7F81E
S315200027605C3097E0E0560120BAD00120B8D0012095
S31520002770C8D00120B6D00120A4D00120C8560120FF
S315200027809C5601209056012094560120FC5601208B
S31520002790C4560120085701201857012064570120EC
S315200027A070570120CCD00120D4D00120E0D00120C8
S315200027B0F0D0012000D10120D0D00120D8D0012096
S315200027C0DCD0012010D1012014D1012014D2012007
S315200027D015D2012016D2012018D2012019D20120AB
S315200027E01AD201201BD201201CD201201DD2012089
S315200027F01ED2012020D2012022D2012024D2012063
S3152000280026D2012028D201202AD201202CD2012032
S315200028102ED2012030D2012032D2012034D2012002
S3152000282036D2012038D201203AD201203CD20120D2
S315200028303ED2012040D20120DFF85C3B9A6AB7F8ED
S315200028405C304FEA430302EB0300DFF84C3B9A6A05
S31520002850B7F85C304FEA430313441B884FEA13232F
S315200028609BB21946DFF8303B9A6AB7F85C304FEADC
S31520002870430313441B884FEA03239BB20A4642EACA
S3152000288003039BB29BB20380B7F85C3003F10103CC
S31520002890A7F85C30B7F86A304FEA53039AB2B7F814
S315200028A05C309342C8D3786D08F03AFC03467B66C9
S315200028B0DFF8E80A4FF002014FF00B027B6D09F0BA
S315200028C05FFC4FF00003A7F85C3030E0B7F85C00FF
S315200028D0B7F85C30DFF8C02A03F114034FEA43034C
S315200028E013449B884FEA13239BB21946B7F85C30F2
S315200028F0DFF8A42A03F114034FEA430313449B8809
S315200029004FEA03239BB20A4642EA03039BB299B2DB
S31520002910DFF8842A00F114034FEA430313440A46DE
S315200029209A80B7F85C3003F10103A7F85C30B7F85A
S315200029305C300A2BCAD9DFF8680A4FF002014FF043
S3152000294005027B6D09F01CFC4FF00003A7F85C30F4
S3152000295029E0B7F85C00B7F85C30DFF83C2A03F1D1
S315200029602C0332F813304FEA13239BB21946B7F8DB
S315200029705C30DFF8242A03F12C0332F813304FEAB7
S3152000298003239BB20A4642EA03039BB29BB2DFF8BB
S31520002990081A00F12C0221F81230B7F85C3003F146
S315200029A00103A7F85C30B7F85C30042BD1D94FF07F
S315200029B00003A7F85C30CFE0B7F85C30DFF8D82901
S315200029C003F120034FEA430313444FF000025A80D9
S315200029D0B7F85C3003F10103DFF8BC2903F11403D7
S315200029E04FEA430313449B881946B7F85C30DFF857
S315200029F0A82903F114034FEA430313449B88C3EB2E
S31520002A000103002B40F3A280B7F85C3003F10103E9
S31520002A10DFF8842903F114034FEA4303134499880A
S31520002A20B7F85C30DFF8702903F114034FEA43034B
S31520002A3013449B88C3EB0103A7F86A30B7F85C10F0
S31520002A40B7F86A304FEA530398B2DFF84C2901F100
S31520002A5020034FEA4303134402465A80B7F85C40EA
S31520002A60B7F86A30184608F08DF903461946DFF89C
S31520002A70282904F118034FEA830313445960B7F851
S31520002A805C30DFF8142903F118034FEA830313445B
S31520002A905A68B7F86A304FEA53039BB210464FF094
S31520002AA002011A467B6D09F06BFB4FF00003A7F875
S31520002AB05E3042E0B7F85C30DFF8DC2803F118031B
S31520002AC04FEA830313445A68B7F85E304FEA43034C
S31520002AD002EB0301B7F85C30DFF8BC2803F11803DA
S31520002AE04FEA830313445A68B7F85E304FEA43032C
S31520002AF013441B884FEA13239BB21846B7F85C3061
S31520002B00DFF8942803F118034FEA830313445A6825
S31520002B10B7F85E304FEA430313441B884FEA03237A
S31520002B209BB2024642EA03039BB29BB20B80B7F8E4
S31520002B305E3003F10103A7F85E30B7F86A304FEA3A
S31520002B4053039AB2B7F85E309342B3D3B7F85C30EA
S31520002B5003F10103A7F85C30B7F85C30092B7FF648
S31520002B602BAFDFF834284FF00003A2F85630DFF8F9
S31520002B702838B3F858301A46DFF81C38B3F84030F6
S31520002B80C3EB0203002B6EDDDFF80C38B3F85820B8
S31520002B90DFF80438B3F84030C3EB0203A7F86A30F5
S31520002BA0B7F86A304FEA53039BB2DFF8EC27A2F856
S31520002BB05630B7F86A30184608F0E4F803461A4645
S31520002BC0DFF8D437C3F88C20DFF8CC37D3F88C2045
S31520002BD0B7F86A304FEA53039BB210464FF0020112
S31520002BE01A467B6D09F0CCFA4FF00003A7F85C304B
S31520002BF030E0DFF8A437D3F88C20B7F85C304FEA02
S31520002C00430302EB0300DFF89037D3F88C20B7F8A4
S31520002C105C304FEA430313441B884FEA13239BB2CD
S31520002C201946DFF87437D3F88C20B7F85C304FEAB2
S31520002C30430313441B884FEA03239BB20A4642EA06
S31520002C4003039BB29BB20380B7F85C3003F1010308
S31520002C50A7F85C30B7F86A304FEA53039AB2B7F850
S31520002C605C309342C5D34FF00003A7F85C30FCE0FC
S31520002C70B7F85C30DFF8202703F12C0332F8133045
S31520002C801A467B6E1344786D19464FF0000208F001
S31520002C905FFAB7F85C30042B00F2E18001A151F80D
S31520002CA023F0C046B92C00200D2D0020612D0020D8
S31520002CB0B52D0020092E00204FF00003A7F85E3026
S31520002CC01FE0B7F85E20DFF8DC36134418464FF0D5
S31520002CD001014FF001027B6D09F052FAB7F85E2030
S31520002CE0DFF8C436134418464FF001014FF00102B5
S31520002CF07B6D09F045FAB7F85E3003F10103A7F8BA
S31520002D005E30B7F85E30032BDBD9A8E04FF0000326
S31520002D10A7F85E301FE0B7F85E20DFF89036134440
S31520002D2018464FF001014FF001027B6D09F028FA99
S31520002D30B7F85E20DFF87836134418464FF00101C5
S31520002D404FF001027B6D09F01BFAB7F85E3003F1F4
S31520002D500103A7F85E30B7F85E300F2BDBD97EE093
S31520002D604FF00003A7F85E301FE0B7F85E20DFF8CB
S31520002D704436134418464FF001014FF001027B6D93
S31520002D8009F0FEF9B7F85E20DFF82C361344184612
S31520002D904FF001014FF001027B6D09F0F1F9B7F810
S31520002DA05E3003F10103A7F85E30B7F85E303F2BA3
S31520002DB0DBD954E04FF00003A7F85E301FE0B7F8E8
S31520002DC05E20DFF8F835134418464FF001014FF026
S31520002DD001027B6D09F0D4F9B7F85E20DFF8E03503
S31520002DE0134418464FF001014FF001027B6D09F0A4
S31520002DF0C7F9B7F85E3003F10103A7F85E30B7F8DC
S31520002E005E30FF2BDBD92AE04FF00003A7F85E30B7
S31520002E101FE0B7F85E20DFF8AC35134418464FF0B4
S31520002E2001014FF001027B6D09F0AAF9B7F85E2087
S31520002E30DFF89435134418464FF001014FF0010294
S31520002E407B6D09F09DF9B7F85E3003F10103A7F811
S31520002E505E30B7F85E2040F2FF339A42D9D9B7F8F0
S31520002E605C3003F10103A7F85C30B7F85C30042B23
S31520002E707FF6FEAEDFF820355A8CDFF81C351B8C2A
S31520002E80C3EB0203A7F86A30B7F86A30184607F092
S31520002E9079FF03461A46DFF80035C3F8382BDFF8EA
S31520002EA0F834D3F8382BB7F86A304FEA53039BB27D
S31520002EB010464FF002011A467B6D09F061F94FF07A
S31520002EC00003A7F85C3030E0DFF8CC34D3F8382B99
S31520002ED0B7F85C304FEA430302EB0300DFF8B8345F
S31520002EE0D3F8382BB7F85C304FEA430313441B88DA
S31520002EF04FEA13239BB21946DFF89C34D3F8382BBC
S31520002F00B7F85C304FEA430313441B884FEA032388
S31520002F109BB20A4642EA03039BB29BB20380B7F8F0
S31520002F205C3003F10103A7F85C30B7F86A304FEA4A
S31520002F3053039AB2B7F85C309342C5D3DFF85834BE
S31520002F401B894FEA53039BB2184607F01BFF034623
S31520002F501A46DFF84434C3F83C2BDFF83C341B898F
S31520002F604FEA53039BB2184607F00CFF03461A4656
S31520002F70DFF82434C3F8402B4FF00003A7F85C3069
S31520002F8022E0DFF81434D3F83C2BB7F85C30134436
S31520002F9018464FF001014FF001027B6D09F0F0F861
S31520002FA0FD4BD3F8402BB7F85C30134418464FF04E
S31520002FB001014FF001027B6D09F0E2F8B7F85C30B1
S31520002FC003F10103A7F85C30F34B1B894FEA530347
S31520002FD09AB2B7F85C309342D3D380E1BB7F022B01
S31520002FE040F0B180FB7F1F2B40F0AD80F74A4FF0B9
S31520002FF001031380F6484FF002014FF001027B6D6A
S3152000300009F0BEF8F24B1B884FEA13239BB21A46EF
S31520003010EF4B1B884FEA03239BB242EA03039BB282
S315200030209BB2EB4A1380EA4B1B884FEA43031846B0
S3152000303007F0A8FE03461A46E54B5A60E44B1B8868
S315200030404FEA4303184607F09DFE03461A46E04B17
S315200030509A604FF00003A7F85C306DE0DC4B5A68AD
S31520003060B7F85C304FEA4303134418464FF0020189
S315200030704FF001027B6D09F083F8D54B9A68B7F8BB
S315200030805C304FEA4303134418464FF002014FF0D9
S3152000309001027B6D09F074F8CD4B5A68B7F85C30A5
S315200030A04FEA430302EB0300C94B5A68B7F85C307A
S315200030B04FEA430313441B884FEA13239BB2194656
S315200030C0C34B5A68B7F85C304FEA430313441B8856
S315200030D04FEA03239BB20A4642EA03039BB29BB202
S315200030E00380BB4B9A68B7F85C304FEA430302EB88
S315200030F00300B74B9A68B7F85C304FEA4303134492
S315200031001B884FEA13239BB21946B14B9A68B7F82E
S315200031105C304FEA430313441B884FEA03239BB2D8
S315200031200A4642EA03039BB29BB20380B7F85C309F
S3152000313003F10103A7F85C30A54B1A88B7F85C3079
S3152000314093428BD3CBE0BB7F022B62D1FB7F282B14
S315200031505FD1A04A4FF0010313809F484FF0020130
S315200031604FF001027B6D09F00BF89B4B1B884FEA51
S3152000317013239BB21A46984B1B884FEA03239BB214
S3152000318042EA03039BB29BB2934A138093484FF0C3
S3152000319002014FF001027B6D08F0F2FF8E4B5B8837
S315200031A04FEA13239BB21A468B4B5B884FEA0323C5
S315200031B09BB242EA03039BB29BB2874A538088485C
S315200031C04FF002014FF001027B6D08F0D9FF824BD0
S315200031D09B884FEA13239BB21A467F4B9B884FEA64
S315200031E003239BB242EA03039BB29BB27A4A9380A3
S315200031F07C484FF001014FF001027B6D08F0C0FFC3
S3152000320079484FF001014FF001027B6D08F0B8FFBD
S3152000321065E0BB7F022B55D1FB7F2B2B52D1734A06
S315200032204FF00103138072484FF001014FF0010265
S315200032307B6D08F0A5FF6F484FF001014FF00102AA
S315200032407B6D08F09DFF6A4B5B78184607F09AFD68
S3152000325003461A46664B5A60654B5B78184607F05C
S3152000326091FD03461A46624B9A604FF00003A7F879
S315200032705C301FE05E4B5A68B7F85C301344184642
S315200032804FF001014FF001027B6D08F079FF584B9A
S315200032909A68B7F85C30134418464FF001014FF096
S315200032A001027B6D08F06CFFB7F85C3003F1010377
S315200032B0A7F85C304E4B5B781A46B7F85C309342E1
S315200032C0D8D30CE0BB7F1A46FB7F4B4811461A46E3
S315200032D00AF03AF94FF000027A6000F037BCB7F8EE
S315200032E05A3003F10103A7F85A30444BB3F844206F
S315200032F0B7F85A309342FEF4B1AF786D0BF040FD2B
S315200033003F4B1B88002B00F0D2824FF4804007F001
S3152000331039FD03467B674FF4006007F033FD034613
S315200033203B674FF4006007F02DFD0346BB67786FBF
S315200033304FF000014FF4804204F010FA386F4FF03E
S3152000334000014FF4006204F009FAB86F4FF0000153
S315200033504FF4006204F002FA4FF00003A7F85A3047
S315200033600EE0B7F85A304FEA43023B6F1A444FF04B
S3152000337000031380B7F85A3003F10103A7F85A3037
S31520003380B7F85A2040F2FF339A42EAD94FF00103A8
S31520003390A7F85A3080E2C0461CD2012048D201202C
S315200033A074D20120ACD20120B0D20120B4D20120A7
S315200033B0C4D20120D4D2012014D3012054D3012019
S315200033C054D4012054D5012054D90120C8D001203D
S315200033D0BCD00120B6D001209AD001209CD001205B
S315200033E09ED00120A0D00120A1D00120A4D0012070
S315200033F0A8D00120A9D001209C570120CCD00120A3
S31520003400B8D00120B7F85A3003F1FF33092B00F268
S31520003410A68101A151F823F04134002091340020E7
S31520003420E13400203135002081350020D1350020BF
S315200034302136002071360020C136002011370020A9
S315200034404FF00003A7F85C3014E0B7F85C304FEA81
S315200034504302BB6F03EB0201B7F85C20DFF8F836B6
S31520003460134493F890300B80B7F85C3003F10103D6
S31520003470A7F85C30B7F85A304FEA430307F19002B9
S31520003480134433F8522CB7F85C309342DDD366E10F
S315200034904FF00003A7F85C3014E0B7F85C304FEA31
S315200034A04302BB6F03EB0201B7F85C20DFF8A836B6
S315200034B0134493F894300B80B7F85C3003F1010382
S315200034C0A7F85C30B7F85A304FEA430307F190016A
S315200034D00B4433F8522CB7F85C309342DDD33EE1EF
S315200034E04FF00003A7F85C3014E0B7F85C304FEAE1
S315200034F04302BB6F03EB0201B7F85C20DFF85836B6
S31520003500134493F898300B80B7F85C3003F101032D
S31520003510A7F85C30B7F85A304FEA430307F1900218
S31520003520134433F8522CB7F85C309342DDD316E1BE
S315200035304FF00003A7F85C3014E0B7F85C304FEA90
S315200035404302BB6F03EB0201B7F85C20DFF80836B5
S31520003550134493F8A8300B80B7F85C3003F10103CD
S31520003560A7F85C30B7F85A304FEA430307F19001C9
S315200035700B4433F8522CB7F85C309342DDD3EEE09F
S315200035804FF00003A7F85C3014E0B7F85C304FEA40
S315200035904302BB6F03EB0201B7F85C20DFF8B835B6
S315200035A0134493F8B8300B80B7F85C3003F101036D
S315200035B0A7F85C30B7F85A304FEA430307F1900278
S315200035C0134433F8522CB7F85C309342DDD3C6E06F
S315200035D04FF00003A7F85C3014E0B7F85C304FEAF0
S315200035E04302BB6F03EB0201B7F85C20DFF86835B6
S315200035F0134493F8F8300B80B7F85C3003F10103DD
S31520003600A7F85C30B7F85A304FEA430307F1900128
S315200036100B4433F8522CB7F85C309342DDD39EE04E
S315200036204FF00003A7F85C3014E0B7F85C304FEA9F
S315200036304302BB6F03EB0201B7F85C20DFF81835B5
S31520003640134493F838310B80B7F85C3003F101034B
S31520003650A7F85C30B7F85A304FEA430307F19002D7
S31520003660134433F8522CB7F85C309342DDD376E01E
S315200036704FF00003A7F85C3014E0B7F85C304FEA4F
S315200036804302BB6F03EB0201B7F85C20DFF8C834B6
S31520003690134493F838320B80B7F85C3003F10103FA
S315200036A0A7F85C30B7F85A304FEA430307F1900188
S315200036B00B4433F8522CB7F85C309342DDD34EE0FE
S315200036C04FF00003A7F85C3014E0B7F85C304FEAFF
S315200036D04302BB6F03EB0201B7F85C20DFF87834B6
S315200036E0134493F838330B80B7F85C3003F10103A9
S315200036F0A7F85C30B7F85A304FEA430307F1900237
S31520003700134433F8522CB7F85C309342DDD326E0CD
S315200037104FF00003A7F85C3014E0B7F85C304FEAAE
S315200037204302BB6F03EB0201B7F85C20DFF82834B5
S31520003730134493F838370B80B7F85C3003F1010354
S31520003740A7F85C30B7F85A304FEA430307F19001E7
S315200037500B4433F8522CB7F85C309342DDD34FF04C
S315200037600003A7F86E304FF00003A7F85C307FE027
S31520003770B7F85C304FEA4302BB6F13441B88002B1B
S3152000378070D04FF00003A7F86C3060E04FF00003D4
S31520003790A7F85E3049E0B7F85E20B7F85C30C3EB97
S315200037A00201B7F85A304FEA430307F19002134457
S315200037B033F8523C1A4691FBF2F302FB03F3C3EBB8
S315200037C00103002B2BD1B7F85E304FEAC301B7F8BF
S315200037D05E304FEA43023B6F13441B880B444FEA8B
S315200037E043027B6F03EB0201B7F85A30DA4A03F142
S315200037F018034FEA830313445A68B7F86E304FEA2A
S31520003800430313441B880B80B7F85E304FEA43020C
S315200038103B6F1A44138803F101039BB21380B7F858
S315200038205E3003F10103A7F85E30B7F85E2040F260
S31520003830FF339A42AFD9B7F86E3003F10103A7F8E8
S315200038406E30B7F86C3003F10103A7F86C30B7F887
S315200038505C304FEA4302BB6F13441A88B7F86C30CA
S31520003860934293D3B7F85C3003F10103A7F85C3099
S31520003870B7F85A304FEA430307F190010B4433F867
S31520003880522CB7F85C309342FFF472AFB7F85A3037
S3152000389003F10103A7F85A30B7F85A300A2B7FF6FE
S315200038A0B1AD386F07F010FAB86F07F00DFAAB4BD1
S315200038B01B88002B5AD04FF00003A7F87C304FF01E
S315200038C00003BB61A64BDB7903F00C03BB60BA682F
S315200038D0082A0FD0BB680C2B03D0B968042912D054
S315200038E017E0B7F87C306FEA83436FEA9343A7F873
S315200038F07C300EE0B7F87C306FEA43436FEA5343DF
S31520003900A7F87C3005E0B7F87C3043F48043A7F86D
S315200039107C30934BDB7903F0A003002B05D0B7F85E
S315200039207C3043F40053A7F87C308D4B5A88B7F887
S315200039307C3042EA0303A7F87C30B7F87C30BB61C1
S31520003940BB694FEA03434FEA1343BB61BB69854812
S31520003950194609F0F9FD844ABB691360834A4FF082
S3152000396001031360814A4FF000031360804B1B88CC
S31520003970002B2AD07F4807F09BFD4FF00003A7F8C5
S315200039805A3018E0B7F85A304FEA43027B6F134497
S315200039901B88BB61744ABB691360744A4FF00103EC
S315200039A01360724A4FF000031360B7F85A3003F1E0
S315200039B00103A7F85A30B7F85A2041F6FF739A4206
S315200039C0E0D9786F07F080F921E06B4807F070FDA9
S315200039D04FF00003A7F85A3013E04FF00003BB6105
S315200039E0614ABB691360614A4FF0010313605F4A65
S315200039F04FF000031360B7F85A3003F10103A7F81C
S31520003A005A30B7F85A2041F6FF739A42E5D95B4BF4
S31520003A101B88002B00F08F80594807F049FD4FF096
S31520003A200003A7F85A307FE04FF00003A7F87C3058
S31520003A304FF00003BB614FF00003A7F85C3053E062
S31520003A40504B5A68B7F85C304FEA430313441A8840
S31520003A50B7F85A30934241D14A4B9A68B7F85C304E
S31520003A604FEA430313441B8803F40063002B07D05B
S31520003A70B7F87C306FEA43436FEA5343A7F87C30AC
S31520003A80404B9A68B7F85C304FEA430313441B88CF
S31520003A909BB203F47043B7F87C201946134641EADB
S31520003AA003039BB2A7F87C30364B5A68B7F85C30D4
S31520003AB04FEA430313441B889BB2FB60FA684FEA24
S31520003AC002534FEA1353FB60B7F87C30F9680A4675
S31520003AD042EA03039BB2A7F87C300BE0B7F85C30D0
S31520003AE003F10103A7F85C30264B1A88B7F85C303F
S31520003AF09342A5D3B7F87C30BB61BB694FEA034339
S31520003B004FEA1343BB61184ABB691360174A4FF04B
S31520003B1001031360154A4FF000031360B7F85A30BB
S31520003B2003F10103A7F85A30B7F85A2040F6FF737D
S31520003B309A427FF679AF0D4A4FF0020313600B4A83
S31520003B404FF0000313604FF001027A607B6818463D
S31520003B5007F19407BD4690BD1CD20120BAD00120A2
S31520003B6014D20120D057012014000240140802402C
S31520003B70B8D00120F857012034580120C8D00120A0
S31520003B806C580120BCD0012080B500AF6A4B9B88C1
S31520003B906A4A13806A4B5B886A4A13806A4A13789A
S31520003BA023F001031370684A137823F0020313707D
S31520003BB0654A137823F004031370634A137823F0BD
S31520003BC008031370604A137823F0100313705E4ABB
S31520003BD0137823F0200313705B4A137823F04003F5
S31520003BE01370594A137803F07F031370564A53789B
S31520003BF023F001035370544A537823F00203537081
S31520003C004E4B1B88DBB203F00103DBB203F001034A
S31520003C1003F00103DBB24C4803F001034FEA8301B2
S31520003C20437823F004031A460B4642EA0303437003
S31520003C30424B1B884FEA53039BB2DBB203F00103CE
S31520003C40DBB203F0010303F00103DBB23E4803F0CD
S31520003C5001034FEAC301437823F008031A460B46B3
S31520003C6042EA03034370384A537823F01003537013
S31520003C70354A537823F020035370334A537823F080
S31520003C8040035370304A537803F07F0353702F4B11
S31520003C901B88002B04D02C4A537843F01003537012
S31520003CA02B4B1B88002B09D0274A537843F040031F
S31520003CB05370254A537843F002035370224B1B88D6
S31520003CC0244A1380FCF7AEFE1B4A4FF001031382F1
S31520003CD04FF0050007F056F803461A46164B9A622F
S31520003CE0154B9A6A4FF020031380134B9B6A03F1FE
S31520003CF002024FF0100313800F4B9B6A03F104025C
S31520003D004FF0810313800C4B9B6A03F106024FF0A0
S31520003D1001031380084B9B6A03F108024FF030031E
S31520003D201380054A4FF000035383034A4FF00A03DA
S31520003D309383BD4680BDC0461CD2012060DD012094
S31520003D4014D20120B4D00120A2D00120A4D0012079
S31520003D50B8D0012098D0012080B5BEB004AF7860DD
S31520003D60854B009307F12003019307F1CC030293BF
S31520003D704FF058004FF001014FF000027F4B03F047
S31520003D80B1FF4FF058004FF000014FF0000203F052
S31520003D9059FF3B6A184603F099FF794B009307F1C8
S31520003DA01C03019307F1B00302934FF05B004FF021
S31520003DB004014FF00002734B03F094FF4FF05B00B9
S31520003DC04FF000014FF0000203F03CFFFB6918465C
S31520003DD003F07CFF6C4B009307F11803019307F166
S31520003DE0940302934FF05C004FF004014FF0000261
S31520003DF0664B03F077FF4FF05C004FF000014FF069
S31520003E00000203F01FFFBB69184603F05FFF604BFB
S31520003E10009307F11403019307F1780302934FF0FF
S31520003E2055004FF000014FF000025A4B03F05AFFA5
S31520003E304FF055004FF000014FF0000203F002FF53
S31520003E407B69184603F042FF534B009307F110039A
S31520003E50019307F15C0302934FF056004FF00001E7
S31520003E604FF000024D4B03F03DFF4FF056004FF050
S31520003E7000014FF0000203F0E5FE3B69184603F00F
S31520003E8025FF474B009307F10C03019307F14003ED
S31520003E9002934FF059004FF002014FF00002414BC0
S31520003EA003F020FF4FF059004FF000014FF00002C1
S31520003EB003F0C8FEFB68184603F008FF3A4B009350
S31520003EC007F10803019307F1240302934FF05A00E8
S31520003ED04FF003014FF00002344B03F003FF4FF085
S31520003EE05A004FF000014FF0000203F0ABFEBB6812
S31520003EF0184603F0EBFE2E4807F0DAFA2D4B1B8806
S31520003F001A462C4B1B889C462B4B1B882B4811464C
S31520003F10624609F019FB4FF0580003F0A5FE4FF05A
S31520003F205B0003F0A1FE4FF05C0003F09DFE4FF016
S31520003F30550003F099FE4FF0560003F095FE4FF022
S31520003F40590003F091FE4FF05A0003F08DFE03F066
S31520003F509DFE1B4A184B1B8813601A4A4FF40053C8
S31520003F601360184A4FF00003136003F067FF07F150
S31520003F70E807BD4680BDC04615410020D940002037
S31520003F806541002031410020654200203142002059
S31520003F90D5430020E142002079440020F14300204F
S31520003FA0C94400209544002021450020E9440020F2
S31520003FB0A0580120B4D0012098D00120C458012057
S31520003FC0140002401408024080B582B000AF786029
S31520003FD039600D4B1B68002B03D04FF00100FCF716
S31520003FE045FD0A4B1B68184603F0FEFE084B1B686E
S31520003FF0184603F0D9FD074A4FF00003136007F176
S315200040000807BD4680BDC04628DE01206CDF0120A2
S3152000401068DD0120BC980120B0B584B002AF78607D
S31520004020264A4FF00103136003F050FC034618465E
S31520004030234903F03BFC234B1B8819460B464FEACA
S3152000404083024FEA8203C2EB03030B444FEA430386
S3152000405003F5BC7303F101031B464FEAE3741A4AC6
S3152000406082E81800164B1A68184B00931046184918
S315200040704FF00002174B03F09DFD164B1D6803F011
S315200040802BFC0A460146104B18CBC91842EB0402FA
S315200040900D4B18CB8DE81800284613460A4603F028
S315200040A079FD0C4B1B68184603F068FD42F2107030
S315200040B04FF0000103F074FEF8E7C046BC980120DB
S315200040C070DD0120B4D0012030DE012038DF012050
S315200040D0C93F002068DD012080B582B000AF78603E
S315200040E03960786803F0CCFD786803F0B1FD084AA2
S315200040F04FF000031360FDF7C1FC786803F0B4FDB0
S315200041004FF00103184607F10807BD4680BDC0469B
S31520004110AC98012080B584B000AFF860B9607A60B1
S31520004120F86803F0A1FD07F11007BD4680BDC04623
S3152000413080B582B000AF78603960786803F0A0FD62
S31520004140786803F085FD064B4FF4AC2019460CF039
S3152000415037FC4FF00303184607F10807BD4680BD1C
S3152000416024DE012080B588B004AFF860B9607A609B
S31520004170264B1B68012B32D1254A4FF001031360D1
S31520004180244B5B784FEA931303F00103DBB2012B38
S3152000419035D1214B1B68002B31D11E4B5B7803F0A8
S315200041A00103DBB2002B2AD11B4A4FF00103136017
S315200041B01A4B00934FF480730193194B0293194BBA
S315200041C003934FF0020018494FF00002174B03F0FB
S315200041D03BFE134B1B68184603F00CFE0FE00D4BFD
S315200041E05B7803F00103DBB2002B08D0FB68DBB25F
S315200041F04FF000004FF000011A46FCF7DDFCF8688E
S3152000420003F032FD07F11007BD4680BD24DE0120F4
S3152000421028DE0120A2D00120BC98012038DE012012
S315200042206CDF012078DD0120194000200059012093
S3152000423080B582B000AF78603960786803F020FDE1
S31520004240786803F005FD064B4FF4AC2019460CF0B8
S31520004250B7FB4FF00303184607F10807BD4680BD9C
S3152000426024DE012080B584B000AFF860B9607A60A2
S31520004270154B1B68012B20D1144B5B7803F00103EF
S31520004280DBB2012B19D1114A537823F00103537065
S315200042900E4B1B880E4A13800E484FF000010CF07F
S315200042A07DFB0D4A0A4B1B8813600C4A4FF40053C2
S315200042B013600A4A4FF000031360F86803F0D4FC39
S315200042C007F11007BD4680BD24DE0120A2D00120C3
S315200042D098D0012002C401001400024014080240B4
S315200042E080B582B000AF78603960786803F0C8FC8A
S315200042F0786803F0ADFC2C4A4FF0000313602B4B7B
S315200043001B882B4A13802B4A4FF0800313602A4ABE
S315200043104FF00003138006E0274B1B8803F1FF3381
S315200043209BB2254A1380244B1B88002BF4D1234BA8
S315200043301B689BB21D4A13801E4A4FF00003136070
S315200043401F4B5B7803F00103DBB2012B1FD1174B08
S315200043501A881C4B1B889A4219D0194A537823F085
S3152000436001035370164B1B88174A138017484FF0CA
S3152000437000010CF013FB164A134B1B8813600D4AE1
S315200043804FF4005313600B4A4FF000031360786814
S3152000439000F0D4F8786803F067FC4FF00103184664
S315200043A007F10807BD4680BD28DE01202CDE01204E
S315200043B070DF01201408024078CF0120100002404F
S315200043C0A2D0012080CF012098D0012002C4010074
S315200043D01400024080B584B000AFF860B9607A60FE
S315200043E0F86803F041FC07F11007BD4680BDC046C2
S315200043F080B582B000AF78603960786803F040FC01
S31520004400786803F025FC174B1B88174A1380174A38
S315200044104FF080031360164A4FF00003138006E026
S31520004420134B1B8803F1FF339BB2114A1380104BA9
S315200044301B88002BF4D10F4B1B689BB2094A1380B3
S315200044400A4A4FF000031360786800F00BF9786889
S3152000445003F00AFC4FF00103184607F10807BD4692
S3152000446080BDC04668DF01206CDD012014080240B3
S3152000447078CF01201000024080B584B000AFF860EC
S31520004480B9607A60F86803F0EFFB07F11007BD46C4
S3152000449080BDC04680B582B000AF7860396078684C
S315200044A003F0EEFB786803F0D3FB064B4FF4AE2007
S315200044B019460CF085FA4FF00303184607F1080752
S315200044C0BD4680BD20DE012080B584B000AFF860F7
S315200044D0B9607A6000F0F8F8F86803F0C5FB07F1D8
S315200044E01007BD4680BDC04680B582B000AF78605B
S315200044F03960786803F0C4FB786803F0A9FB074AA3
S315200045004FF001031360786803F0AEFB4FF0010310
S31520004510184607F10807BD4680BDC046AC98012065
S3152000452080B584B000AFF860B9607A60F86803F0AF
S315200045309BFB07F11007BD4680BDC04680B582B003
S3152000454000AF78603F4A4FF0010313603E4B1B8853
S315200045504FEA13339BB2A3F10803072B6DD801A2B0
S3152000456052F823F085450020254600203B460020B2
S315200045703B460020374600202B46002031460020AF
S31520004580E7450020314B5B784FEA931303F0010394
S31520004590DBB2012B51D12C4B1B884FEA03524FEA39
S315200045A012522B4B1B889A4247D12A4A2A4B1B88E8
S315200045B06FEA43436FEA53439BB21360274A4FF493
S315200045C080731360254A4FF000031360234A4FF48B
S315200045D000731360214A4FF0000313604FF001006F
S315200045E0FCF744FA29E0184B1B884FEA03524FEA9E
S315200045F01252174B1B889A421FD1164A184B1B88FA
S315200046001360164A4FF480731360144A4FF0000368
S315200046101360124A4FF400731360104A4FF00003E0
S3152000462013600AE0FCF708F807E0FCF719F804E045
S31520004630FCF72EF801E0FCF755F807F10807BD4610
S3152000464080BDC04674DD01202CDE0120A2D00120D1
S31520004650B4D001201400024060DD0120140802407D
S3152000466098D0012080B582B000AF7860124A4FF012
S3152000467001031360114B5B7803F00103DBB2002BBF
S3152000468008D10E4B5B784FEA931303F00103DBB29C
S31520004690012B0DE00A4B1B884FEA13339BB2DAB28B
S315200046A0084B19887B68DBB210461A46FCF784FA59
S315200046B007F10807BD4680BD74DD0120A2D0012088
S315200046C02CDE012068DF012090B585B000AF7E4B3F
S315200046D01B68002B4ED17D4A4FF0000313607C4AA5
S315200046E04FF4805313607B4A4FF00003138006E09B
S315200046F0784B1B8803F1FF339BB2764A1380754BA8
S315200047001B88002BF4D1744B1B689BB2BB81704A6B
S315200047104FF00003136007F10C031B887B816B4B62
S315200047201B68002B40F0B680BB891A4640F63F43F3
S3152000473002EA0303002B40F0AD80BB89674A138051
S31520004740674A7B891380664B5B784FEA931303F0A5
S315200047500103DBB2002B07D0614B5B7803F001032A
S31520004760DBB2002B40F096805E484FF000010CF043
S3152000477015F98FE0554A4FF000031360544A4FF461
S3152000478080531360534A4FF00003138006E0514BC9
S315200047901B8803F1FF339BB24E4A13804D4B1B8877
S315200047A0002BF4D14C4B1B68FB81494A4FF0000388
S315200047B01360464B1B68002B6CD1F98979607A68A7
S315200047C04FEA02534FEA13537B60474A79680B46F8
S315200047D01380454B1B8819460B464FEA83024FEA46
S315200047E08203C2EB03030B444FEA430303F5BC7376
S315200047F003F101031B464FEAE3743C4A82E81800A2
S31520004800FB894FEA53339BB203F00103002B21D1DE
S31520004810334B5B784FEA931303F00103DBB2012B92
S3152000482018D12F4A537823F0400353702C4A5378DB
S3152000483023F0020353702A4A537823F0010353705E
S31520004840274B1B88254A138026484FF000010CF081
S31520004850A5F81FE0FB894FEA53339BB203F001030F
S31520004860DBB2002B16D01E4B5B784FEA931303F076
S315200048700103DBB2002B0DD1194A537843F04003D4
S315200048805370174A537843F002035370144B1B8816
S31520004890124A1380114B1B881A4640F63F4302EA00
S315200048A00303002B03D1124A0C4B1B881360084AC2
S315200048B04FF400531360064A4FF00003136007F1CC
S315200048C01407BD4690BDC04620DE012074DD0120C0
S315200048D01408024078CF01201000024098D0012011
S315200048E0A2D0012002C40100B4D0012030DE012074
S315200048F01400024080B584B004AF1E4840F26241E5
S3152000490008F022FE1C480BF0E7FF1C480BF0E4FFE2
S315200049101B480BF0E1FF1B480BF0DEFF16484FF05B
S3152000492000010CF03BF815484FF000010CF036F86A
S3152000493013484FF000010CF031F812484FF00001F7
S315200049400CF02CF8104B00934FF4807301930F4B0F
S3152000495002930F4B03934FF000000E494FF00002D5
S315200049600D4B03F071FA094B1B68184603F042FA07
S3152000497003F080FA1059012002A4010002C40100AC
S3152000498002E4010002F4010078DF012078E401202E
S31520004990D0E301209D4900203C59012090B58FB0DD
S315200049A004AF7860934A40F63303136002F094FF15
S315200049B003460C46BB60FC60FDF79CF80346002BC3
S315200049C004D18D4806F074FD03F038FA02F084FF16
S315200049D003460C463B617C613A69BB68C3EB020225
S315200049E0864BA3FB02134FEAD303FB618448F96984
S315200049F008F0AAFD834806F05BFD834A4FF00003CA
S31520004A00138010E0804B1B884FEA033343F4806306
S31520004A107B62786A0BF060FF7B4B1B8803F10103F6
S31520004A209BB2794A1380784B1B880F2BEAD9774B98
S31520004A303B62386A0BF050FF754B3B62386A0BF0CD
S31520004A404BFF744B3B62386A0BF046FF724B3B625E
S31520004A50386A0BF041FF714B3B62386A0BF03CFF22
S31520004A606F4B3B62386A0BF037FF6E4B3B62386AFE
S31520004A700BF032FF6C4B3B62386A0BF02DFF6B4B11
S31520004A803B62386A0BF028FF4FF4AC233B62386A4E
S31520004A900BF022FF4FF4AE233B62386A0BF01CFF6B
S31520004AA04FF4B4233B62386A0BF016FF4FF4CE2343
S31520004AB03B62386A0BF010FF4FF4D0233B62386A12
S31520004AC00BF00AFF4FF4D4233B62386A0BF004FF45
S31520004AD04FF4D6233B62386A0BF0FEFE4FF4D82300
S31520004AE03B62386A0BF0F8FE4FF4DA233B62386AF1
S31520004AF00BF0F2FE4FF4DC233B62386A0BF0ECFE3F
S31520004B004FF4DE233B62386A0BF0E6FE484806F097
S31520004B10CFFC484A4FF480431360474A46F2666307
S31520004B201360464A46F266631360454A46F2666358
S31520004B301360444A46F266631360434B00934FF476
S31520004B4080730193414B0293414B03934FF0010035
S31520004B5040494FF00002404B03F076F902F0BCFECC
S31520004B6003460C46BB60FC60FDF78EF80346002B1F
S31520004B7002D13A4806F09CFC02F0AEFE03460C46F3
S31520004B803B617C613A69BB68C3EB02021B4BA3FB0A
S31520004B9002134FEAD303FB613148F96908F0D4FCCC
S31520004BA0304806F085FCFEF7EFFF2F4806F080FC24
S31520004BB02E4B00934FF4807301932D4B02932D4B74
S31520004BC003934FF003002C494FF000022B4B03F0C8
S31520004BD03BF91E4B1B68184603F00CF9244B1B6847
S31520004BE0184603F007F903F029F907F12C07BD460B
S31520004BF090BDC04614E000E048590120CDCCCCCC75
S31520004C00685901209059012078CF01200A0402001A
S31520004C100A1402000A6402000A7402000A840200CE
S31520004C200A9402000AC402000AD402000AE402001E
S31520004C30A859012044380240083801400C38014068
S31520004C40103801401438014078E001207CE401202E
S31520004C5020E30120593D0020C0590120D4590120CC
S31520004C600C5A0120345A0120545A012020E20120F6
S31520004C70C8E3012078E10120814C0020705A0120F0
S31520004C8080B584B000AF78604FF00003FB81FB89CC
S31520004C90274819460BF082FE264B1B784FEAD31382
S31520004CA0DBB2012B19D1FB89234819460BF076FE7E
S31520004CB0204B1B784FEA931303F00103DBB2012B41
S31520004CC005D11E484FF000010BF068FE1EE01B4880
S31520004CD04FF001010BF062FE18E0FB8917481946D8
S31520004CE00BF05CFE134B1B784FEA931303F0010382
S31520004CF0DBB2012B05D110484FF000010BF04EFE20
S31520004D0004E00D484FF001010BF048FE41F28830D7
S31520004D104FF0000103F044F8FB89002B03D14FF03C
S31520004D200103FB81B3E74FF00003FB81AFE7C046E9
S31520004D3002A40100A2D0012002E4010002F4010035
S31520004D4000B581B001F068FD01B000BD406910B525
S31520004D50D0F800C0DCF80840A04710BD30B5036F7E
S31520004D6081B004460D46DBB1226FE36E9A420BDA20
S31520004D70636E226ED55401336366626EE36E9A4289
S31520004D8013D0236F01332367D4F8943033B1002333
S31520004D90C4F8943004F1780002F0F4FD01B030BD7F
S31520004DA000F1A0000DF0E2F8DEE700236366E8E7F5
S31520004DB0F0B5836A81B0002B0546066825DD0027FD
S31520004DC00DE02B6A01332B622A6A6B6A9A4208BF6E
S31520004DD02F62AB6A013BAB62AA6A002A15DD2A6AFA
S31520004DE0AB693468995C2846A0470028E9D1AB6AAC
S31520004DF06A6AE96AD21A8A4205DBEB6C93B905F135
S31520004E0058000DF0B3F801B0F0BD3269284690473E
S31520004E10EB6C002BF3D00023EB6405F1300002F09D
S31520004E20B1FDECE7E86405F1300002F0ABFDE6E702
S31520004E3030B5426981B005462AB9436ACBB9EB6ED3
S31520004E401BB901236B6101B030BD0023C5F8943036
S31520004E50C5F8983005F1A00005F180040DF02EF874
S31520004E60204602F0D9FD05F17800214602F0A4FD86
S31520004E70E7E700F138040265C2644265204602F085
S31520004E80CBFD05F13000214602F096FD6B6A05F157
S31520004E905800DA1C33EA230328BF13469B10EB6223
S31520004EA00DF00CF8EB6E002BCBD0CEE72DE9F041C0
S31520004EB0A1F58071466901399C46356810290AD8C2
S31520004EC0DFE801F02433385F800909090909090957
S31520004ED0090909090E006FF015042046BDE8F08186
S31520004EE0DCF800300F2BF6D91023CCF80030F36E07
S31520004EF01360002B40F094805360706A9060002805
S31520004F0000F09980B36A0024D360E6E7DCF800302D
S31520004F10072BE0D906F10C0393E80300082382E867
S31520004F2003000024CCF80030D7E7736A002B57D152
S31520004F300024D2E7736A002BFAD006F138073846E8
S31520004F4002F05EFD02F05AFCB36A002B08DD002356
S31520004F50B362B26A3046F261F3692A6933629047D6
S31520004F6000221346AC68304640F20311A047F36C8A
S31520004F70002B6ED102F000FF384602F035FD0024EA
S31520004F80ABE7F36E002BD3D006F18007384602F04C
S31520004F9037FD02F033FCD6F89430002B4ED1002496
S31520004FA03467336F4FF482717366726E2346B2662E
S31520004FB0AD6822463046A84702F0DEFE384602F0AB
S31520004FC013FD8AE7F36E002B2DD1736A002BAFD029
S31520004FD00123336506F1300002F0D4FC00247CE77F
S31520004FE006F13808404602F00BFD06F1300502F0C6
S31520004FF005FC0024012707E0F764284602F0CEFCD2
S31520005000002808BF6FF00304736D002BF4D1B36A38
S31520005010002BF1DC02F0B0FE404602F0E5FC5CE736
S31520005020336F536069E70123C6F8983006F178009C
S3152000503002F0A8FCC9E7D06004464EE70123C6F873
S31520005040983006F1780002F09DFC0023C6F89430D3
S31520005050A5E70123336506F1300002F093FC002317
S31520005060F36487E72DE9F04F456981B0A94659F8E1
S31520005070808B8A46484617460E4602F0C1FCEB6EE8
S315200050800024C5F89840BBB93B686BB10134D8F809
S315200050900430284698470AEB040303F8010C3B68C2
S315200050A0224601349342F2D80024484602F09CFC62
S315200050B0204601B0BDE8F08F02F0A0FB05F178088C
S315200050C04FF0010BA24611E0A96E2B6E5A5C32708E
S315200050D0AB6E0133AB66AA6EEB6E9A4208BFC5F87B
S315200050E068A02B6F0136013B2B6701343B689C423D
S315200050F019D22B6F002BE7DCC5F894B0404602F09E
S315200051004DFC08B9C5F898B0D5F89830002BEDD0ED
S3152000511000233C60C5F89830C5F894306FF003043E
S3152000512002F02AFEC1E7002402F026FEBDE7C046B3
S315200051302DE9F04F456981B0A94659F8387BD2F858
S31520005140008048460E4693468A4602F059FC0023C4
S315200051502B656B6A4446A3B9B8F1000F09DD1C46DE
S31520005160315D3B68284698470028F9D001344445EC
S31520005170F6D10024484602F037FC204601B0BDE8AF
S31520005180F08F02F03BFBB8F1000F3ADD05F1300855
S3152000519001260DE0EB691AF8012BA969013CCA54D6
S315200051A00133EB61E861AB6A0133AB62002C28DD89
S315200051B0EB696A6A581CAB6A824208BF00209A4291
S315200051C0E8D1EE64FA6828469047EB6C6BB92B6DF4
S315200051D0002BEBD0DBF8003000221B1BCBF8003075
S315200051E06FF003042A65EA640CE06B6D40462344A5
S315200051F06B6502F0D3FB00B92E656B6D1B1B6B65CF
S31520005200E5E70024FB682846984702F0B5FDB1E79C
S3152000521001292DE9F0410C469046456905D0022921
S3152000522018D000242046BDE8F08105F180073846D5
S3152000523002F0E6FB02F0E2FA2E6F2EB905F1A0018C
S3152000524040460CF06DFE344602F096FD384602F0DC
S31520005250CBFBE7E705F13806304602F0D1FB02F03A
S31520005260CDFAAB6A6A6AE96AD21A8A4206DB012457
S3152000527002F082FD304602F0B7FBD3E705F1580174
S3152000528040460CF04DFE0024F2E7C0464269052355
S315200052900120106053607047036800205A699160AE
S315200052A07047C04610B5D0F814C01C4640F2812382
S315200052B09942DCF8080003D0234601F07DFB10BD9F
S315200052C02368082B09BF92E803006FF015008CE8CD
S315200052D003000020F3E7C04610B540691C4640F2A3
S315200052E001239942D0F808C004D06046234601F035
S315200052F051FB10BD2368072B98BF6FF01500F8D916
S31520005300082303C882E8030023600020F1E7C04693
S3152000531000B5436981B0986801F030FB01B000BD4B
S315200053202DE9F04F466983B0B7688B469046002436
S315200053300DF1070AE946D8F800309C4225D2012310
S31520005340384651466A46009301F0E4FA054600289D
S315200053504DD19DF807300BF804307268013412F0F5
S31520005360080FE8D10A2B2ED013D8082B15D012F00F
S31520005370040FE0D00123384651466A46009301F0D7
S31520005380B9FAD8F800309C42D9D3C8F80040002595
S315200053902FE00D2B0ED07F2BE9D1023C2DD412F01D
S315200053A0040FC8D0032338461C496A46009301F0EF
S315200053B0A1FAC0E712F0020FBDD112F0010F02D000
S315200053C00A238DF8073012F0040F0AD0336813F041
S315200053D0010F14D10123384651466A46009301F045
S315200053E089FA9DF807300BEB040202F8013CC8F855
S315200053F00040284603B0BDE8F08F00249BE7022337
S315200054006A4638460649009301F074FA9DF807303B
S315200054100BEB040202F8013CE9E7C0467C5A012066
S31520005420805A01202DE9F04F002395B0D0F814A022
S315200054301393DAF80880D2F800C00F4601921C4672
S315200054401D466FF008000DF10C0B0DF14C0964455B
S315200054501DD2395D0A291DD0139A14AE06EB02031C
S31520005460013201343E2A03F8441C139201D8A44584
S31520005470EDD1404659464A4601F03CFAC0B9019B57
S31520005480139A1390D3F800C0AD186445E1D315B034
S31520005490BDE8F08FDAF8003013F0010FDCD0139A54
S315200054A014AB9B184FF00D0603F8446C0132D4E779
S315200054B0019A1560EBE7C0460120704700B540F21F
S315200054C08113994281B018BF6FF0150001D001B049
S315200054D000BD0348034901F0E3FF0020F7E7C0467B
S315200054E0245C0120C45A012000B583B00DF10700C9
S315200054F000F0E2FF9DF8070003B000BD00B50846A6
S3152000550081B001F05FF8012001B000BD054B00B568
S31520005510196881B04A1C1A6011B9034803F002F8D1
S3152000552001B000BDD0980120F0A7012000B581B0C0
S31520005530FFF7ECFF01B000BD30B48C460478097843
S315200055408C422AD1002C27D0002201E0002920D02D
S315200055500132815C1CF802309942F7D00D46104684
S315200055601946012A0ED010462C4641B92F2C14BFBD
S3152000557000230123002C08BF43F0010303B90020B8
S3152000558030BC70472F2CEED19CF80130002BEAD18D
S31520005590F6E710460D46E4E721460020E5E7C0463B
S315200055A02DE9F04F85B0039008680292037888466B
S315200055B02F2B62D0029A11680E46002900F08B80AC
S315200055C00A681378002B00F08C8000250135535D86
S315200055D0002BFBD1A946454B454FBB421FBF1C465E
S315200055E009F101038A464FF0000B18BF01937BD0C7
S315200055F0206810B123692BB90E462034BC420CD04A
S315200056000E46F5E70968FFF797FFA84220D0029AD1
S3152000561020341168BC420E46F2D151451BBFDAF840
S315200056201830039AD8F80000D8F8000017BF136086
S315200056305B465B46564600EB0302C8F80020C35C77
S315200056402F2B44D0029B00201E6005B0BDE8F08FB2
S315200056502268D8F8000012F8093002EB09012F2B36
S3152000566004BF019BD118FFF767FF584536DD029A24
S31520005670A246116883460E46BFE71C4B1C4FBB4211
S3152000568029D000261C46354602E02034BC4210D0E4
S3152000569021680029F9D02369002BF6D0D8F800001C
S315200056A0FFF74AFFA842C4BF264605462034BC421F
S315200056B0EED185B1B369039AD8F8000013602B4662
S315200056C000EB0302C8F80020C35C2F2BBAD1531C71
S315200056D0C8F80030B6E74FF0FF30B6E7029B1968EE
S315200056E08AE71D46994676E70023A4E7206701202E
S315200056F060680120024607490748884203D106E030
S315200057002030884203D083699A42F9D1704700201D
S31520005710FCE7C046606801202067012026207047EC
S315200057201E207047002070471420704701207047C4
S3152000573000B5034B81B018680AF0E8F901B000BD46
S31520005740DCC8012030B511F0020F81B005460C46A9
S315200057500FD114F0040F0AD00C4B0D48C3EB0503F0
S315200057605B119A001B01D218801804F0B5FF01B016
S3152000577030BD4369074A08489B1A9B119A001B01B2
S31520005780D218801804F0A8FFE3E7C046206701205E
